{
  "_format": "hh-sol-artifact-1",
  "contractName": "VaultManager",
  "sourceName": "contracts/VaultManager.sol",
  "abi": [
    {
      "anonymous": false,
      "inputs": [
        {
          "indexed": true,
          "internalType": "address",
          "name": "user",
          "type": "address"
        },
        {
          "indexed": false,
          "internalType": "string",
          "name": "ipfsHash",
          "type": "string"
        }
      ],
      "name": "VaultCreated",
      "type": "event"
    },
    {
      "anonymous": false,
      "inputs": [
        {
          "indexed": true,
          "internalType": "address",
          "name": "user",
          "type": "address"
        },
        {
          "indexed": false,
          "internalType": "string",
          "name": "ipfsHash",
          "type": "string"
        }
      ],
      "name": "VaultUpdated",
      "type": "event"
    },
    {
      "inputs": [
        {
          "internalType": "address",
          "name": "_user",
          "type": "address"
        },
        {
          "internalType": "string",
          "name": "_ipfsHash",
          "type": "string"
        },
        {
          "internalType": "bytes32",
          "name": "_zkAuthHash",
          "type": "bytes32"
        }
      ],
      "name": "createVault",
      "outputs": [],
      "stateMutability": "nonpayable",
      "type": "function"
    },
    {
      "inputs": [
        {
          "internalType": "address",
          "name": "_user",
          "type": "address"
        }
      ],
      "name": "getVault",
      "outputs": [
        {
          "internalType": "string",
          "name": "",
          "type": "string"
        },
        {
          "internalType": "bytes32",
          "name": "",
          "type": "bytes32"
        }
      ],
      "stateMutability": "view",
      "type": "function"
    },
    {
      "inputs": [
        {
          "internalType": "address",
          "name": "_user",
          "type": "address"
        },
        {
          "internalType": "string",
          "name": "_ipfsHash",
          "type": "string"
        },
        {
          "internalType": "bytes32",
          "name": "_zkAuthHash",
          "type": "bytes32"
        }
      ],
      "name": "updateVault",
      "outputs": [],
      "stateMutability": "nonpayable",
      "type": "function"
    }
  ],
  "bytecode": "0x608060405234801561001057600080fd5b50610bc1806100206000396000f3fe608060405234801561001057600080fd5b50600436106100415760003560e01c80630eb9af38146100465780636c6525cc14610077578063a371157b14610093575b600080fd5b610060600480360381019061005b91906104d3565b6100af565b60405161006e9291906105a9565b60405180910390f35b610091600480360381019061008c919061073a565b6101af565b005b6100ad60048036038101906100a8919061073a565b610308565b005b60606000806000808573ffffffffffffffffffffffffffffffffffffffff1673ffffffffffffffffffffffffffffffffffffffff16815260200190815260200160002060405180604001604052908160008201805461010d906107d8565b80601f0160208091040260200160405190810160405280929190818152602001828054610139906107d8565b80156101865780601f1061015b57610100808354040283529160200191610186565b820191906000526020600020905b81548152906001019060200180831161016957829003601f168201915b505050505081526020016001820154815250509050806000015181602001519250925050915091565b60008060008573ffffffffffffffffffffffffffffffffffffffff1673ffffffffffffffffffffffffffffffffffffffff16815260200190815260200160002060000180546101fd906107d8565b90500361023f576040517f08c379a000000000000000000000000000000000000000000000000000000000815260040161023690610855565b60405180910390fd5b6040518060400160405280838152602001828152506000808573ffffffffffffffffffffffffffffffffffffffff1673ffffffffffffffffffffffffffffffffffffffff16815260200190815260200160002060008201518160000190816102a79190610a2b565b50602082015181600101559050508273ffffffffffffffffffffffffffffffffffffffff167f295058f829d894281a38bc2734ef85cbe0e6afe0824dd4da4bd82d247aee997d836040516102fb9190610afd565b60405180910390a2505050565b60008060008573ffffffffffffffffffffffffffffffffffffffff1673ffffffffffffffffffffffffffffffffffffffff1681526020019081526020016000206000018054610356906107d8565b905014610398576040517f08c379a000000000000000000000000000000000000000000000000000000000815260040161038f90610b6b565b60405180910390fd5b6040518060400160405280838152602001828152506000808573ffffffffffffffffffffffffffffffffffffffff1673ffffffffffffffffffffffffffffffffffffffff16815260200190815260200160002060008201518160000190816104009190610a2b565b50602082015181600101559050508273ffffffffffffffffffffffffffffffffffffffff167f9ac5b328ab6d3580bb9d913ade0f698d31858dbd2f266e8c5b30ab443f9aff8f836040516104549190610afd565b60405180910390a2505050565b6000604051905090565b600080fd5b600080fd5b600073ffffffffffffffffffffffffffffffffffffffff82169050919050565b60006104a082610475565b9050919050565b6104b081610495565b81146104bb57600080fd5b50565b6000813590506104cd816104a7565b92915050565b6000602082840312156104e9576104e861046b565b5b60006104f7848285016104be565b91505092915050565b600081519050919050565b600082825260208201905092915050565b60005b8381101561053a57808201518184015260208101905061051f565b60008484015250505050565b6000601f19601f8301169050919050565b600061056282610500565b61056c818561050b565b935061057c81856020860161051c565b61058581610546565b840191505092915050565b6000819050919050565b6105a381610590565b82525050565b600060408201905081810360008301526105c38185610557565b90506105d2602083018461059a565b9392505050565b600080fd5b600080fd5b7f4e487b7100000000000000000000000000000000000000000000000000000000600052604160045260246000fd5b61061b82610546565b810181811067ffffffffffffffff8211171561063a576106396105e3565b5b80604052505050565b600061064d610461565b90506106598282610612565b919050565b600067ffffffffffffffff821115610679576106786105e3565b5b61068282610546565b9050602081019050919050565b82818337600083830152505050565b60006106b16106ac8461065e565b610643565b9050828152602081018484840111156106cd576106cc6105de565b5b6106d884828561068f565b509392505050565b600082601f8301126106f5576106f46105d9565b5b813561070584826020860161069e565b91505092915050565b61071781610590565b811461072257600080fd5b50565b6000813590506107348161070e565b92915050565b6000806000606084860312156107535761075261046b565b5b6000610761868287016104be565b935050602084013567ffffffffffffffff81111561078257610781610470565b5b61078e868287016106e0565b925050604061079f86828701610725565b9150509250925092565b7f4e487b7100000000000000000000000000000000000000000000000000000000600052602260045260246000fd5b600060028204905060018216806107f057607f821691505b602082108103610803576108026107a9565b5b50919050565b7f5661756c74206e6f7420666f756e640000000000000000000000000000000000600082015250565b600061083f600f8361050b565b915061084a82610809565b602082019050919050565b6000602082019050818103600083015261086e81610832565b9050919050565b60008190508160005260206000209050919050565b60006020601f8301049050919050565b600082821b905092915050565b6000600883026108d77fffffffffffffffffffffffffffffffffffffffffffffffffffffffffffffffff8261089a565b6108e1868361089a565b95508019841693508086168417925050509392505050565b6000819050919050565b6000819050919050565b600061092861092361091e846108f9565b610903565b6108f9565b9050919050565b6000819050919050565b6109428361090d565b61095661094e8261092f565b8484546108a7565b825550505050565b600090565b61096b61095e565b610976818484610939565b505050565b5b8181101561099a5761098f600082610963565b60018101905061097c565b5050565b601f8211156109df576109b081610875565b6109b98461088a565b810160208510156109c8578190505b6109dc6109d48561088a565b83018261097b565b50505b505050565b600082821c905092915050565b6000610a02600019846008026109e4565b1980831691505092915050565b6000610a1b83836109f1565b9150826002028217905092915050565b610a3482610500565b67ffffffffffffffff811115610a4d57610a4c6105e3565b5b610a5782546107d8565b610a6282828561099e565b600060209050601f831160018114610a955760008415610a83578287015190505b610a8d8582610a0f565b865550610af5565b601f198416610aa386610875565b60005b82811015610acb57848901518255600182019150602085019450602081019050610aa6565b86831015610ae85784890151610ae4601f8916826109f1565b8355505b6001600288020188555050505b505050505050565b60006020820190508181036000830152610b178184610557565b905092915050565b7f5661756c7420616c726561647920657869737473000000000000000000000000600082015250565b6000610b5560148361050b565b9150610b6082610b1f565b602082019050919050565b60006020820190508181036000830152610b8481610b48565b905091905056fea26469706673582212208bf6819c1213cbd688e75ecedb338c335386a63d5dc8cd1f6f90b36a496211e664736f6c63430008140033",
  "linkReferences": {},
  "deployedLinkReferences": {}
}